S00C00004750494F2E73726563E9
S315000000007016FE1FE50F0000CD0E0000E10F000088
S31500000010E10F0000E10F0000E10F0000E10F00001A
S31500000020000000000000000000000000E10F0000DA
S31500000030E10F000000000000E10F0000E10F0000EA
S31500000040310D0000310D0000310D0000310D0000B2
S31500000050D1070000490700005D080000990800006C
S31500000060000000000000000000000000000000008A
S31500000070000000000000000000000000000000007A
S31500000080000000000000000000000000000000006A
S31500000090000000000000000000000000000000005A
S31500000400FFFFFFFFFFFDFFFFFCFFFFFFFFFFFFFFFB
S31500000410FCFFFFFFFFFFFFFFFCFFFF00FFFFFF00EA
S31500000420FCFF0F20FFFF0F20FCFF7F40FFFF7F40F8
S31500000430FCFF0D40FFFF0D40FFFFFFFFFFFFFFFF2B
S31500000440FFFFFFFFFFFFFFFFFFFFFFFFFFFFFFFFB6
S31500000450FFFFFFFFFFFFFFFFFFFFFFFFFFFFFFFFA6
S31500000460FFFFFFFFFFFFFFFFFFFFFFFFFFFFFFFF96
S31500000470FFFFFFFFFFFFFFFFFFFFFFFFFFFFFFFF86
S31500000480FFFFFFFFFFFFFFFFFFFFFFFFFFFFFFFF76
S31500000490FFFFFFFFFFFFFFFFFFFFFFFFFFFFFFFF66
S315000004A0FFFFFFFFFFFFFFFFFFFFFFFFFFFFFFFF56
S315000004B0FFFFFFFFFFFFFFFFFFFFFFFFFFFFFFFF46
S315000004C0FFFFFFFFFFFFFFFFFFFFFFFFFFFFFFFF36
S315000004D0FFFFFFFFFFFFFFFFFFFFFFFFFFFFFFFF26
S315000004E0FFFFFFFFFFFFFFFFFFFFFFFFFFFFFFFF16
S315000004F0FFFFFFFFFFFFFFFFFFFFFFFFFFFFFFFF06
S3150000050010B5054C237833B9044B13B10448AFF347
S3150000051000800123237010BD3000FE1F0000000084
S315000005203813000008B5034B1BB103490348AFF36A
S31500000530008008BD000000003400FE1F38130000D4
S3150000054038B5114D1149124C284600F091FB28464A
S3150000055000F0CEFB0F4D1049204600F089FB2046E7
S3150000056000F0C6FB0D4C0E49284600F081FB2846DC
S3150000057000F0BEFB20460B4900F07AFB2046BDE8A2
S31500000580384000F0B5BB00BF5C00FE1F50110000F4
S315000005906C00FE1F7C00FE1F641100008C00FE1F15
S315000005A0781100008C11000043680B3B032B07D821
S315000005B0DFE803F0130B07020F4A104B1268DA64E8
S315000005C070470E4B0022DA6470470D490D4B0988BF
S315000005D00D4800221A7000F0C1B90C48084903689A
S315000005E0098810B40122074C1344036022700648A0
S315000005F05DF8044B00F0B2B90800FE1F0083074007
S315000006000000FE1F5000FE1F5400FE1F4C00FE1F80
S3150000061070B51B4B1B4CD3F808211B491B4E6FF3BF
S315000006204512C3F80821E36A6FF31243E362E36AF3
S315000006306FF3DA53E3620B680025013B6366A5643A
S31500000640636B092262F304036363636B104A43F42A
S31500000650807363630F4B11881D702A46304600F085
S315000006607DF9E564E36A0C4A0C4943F00103E36251
S31500000670304612780988BDE8704000F06FB900BFB7
S31500000680006F0440008307400800FE1F5400FE1F51
S315000006900000FE1F5000FE1F0400FE1F0200FE1F8A
S315000006A0022800D07047024B0248596800F07ABA17
S315000006B0441100005400FE1F08B5FFF741FFFFF785
S315000006C0A7FF002240F608210A4800F047F9002259
S315000006D040F60921074800F041F9012240F60A21B7
S315000006E0044800F03BF9034800224FF4306100F063
S315000006F035F9FEE75400FE1F08B5FFF7DDFF0020C1
S3150000070008BD00BFF0B5846A85B005460F4694461D
S315000007106E46B4B194E80F0086E80F00EB691B78CB
S3150000072084F804C02360EB6A2046C4E902736B6A4E
S315000007309847AC6A1CB196E80F0084E80F0005B034
S31500000740F0BD3446EAE700BF30B4EFF30383103B55
S315000007505BB203F1C0011C4A1C4C52F821006FF336
S31500000760104042F8210054F82300C3691B691BB1ED
S3150000077003691BB130BC7047036963B9046AA37887
S3150000078003F07F03002143F00403A370802230BCF2
S31500000790C160FFF7B7BF827802F003010229C16882
S315000007A00BD0046A91F800C084F803C002F003027B
S315000007B09B1A0A44C0E90323DBE70C88056A44F464
S315000007C07E44EC81F2E700BF00600040E000FE1FBF
S315000007D010B582B0EFF30383103B5BB203F1C001A7
S315000007E01C4A1D4C52F821006FF3104042F82100BC
S315000007F054F82340A27802F00303022B236A0CBFAD
S31500000800198A5979A3690CBFC1F30801C9B20191CC
S3150000081033B90422204602B0BDE81040FFF772BF8C
S3150000082002F0030201A9606900F042FCD4E9052147
S31500000830A37803F003031A44C91AC4E9052109B1D0
S3150000084002B010BD0122204602B0BDE81040FFF7FD
S3150000085059BF00BF00600040E000FE1F38B5EFF34F
S315000008600384103C0A4B64B2022253F82400056A42
S31500000870AB7803F07B03AB700021FFF743FFC03476
S31500000880044B53F824206FF3104243F8242038BD5C
S31500000890E000FE1F0060004010B5EFF30384103C3B
S315000008A0174B64B253F82400837803F00303022B3A
S315000008B0036A0CBF198A597993F804C00CBFC1F3B7
S315000008C00801C9B21CF0100F0CF0380206D093F8DC
S315000008D01CC01CF0010F08BF42F0400293F804C090
S315000008E00CF0C70C83F804C0FFF70CFFC034054BAF
S315000008F053F824206FF3104243F8242010BD00BFA4
S31500000900E000FE1F006000400023036018467047A9
S315000009100B0A1B01044853FA81F150F82130C3F346
S31500000920400300201370704700080440090A49017B
S3150000093001F1804101F5802100204B68138070474A
S31500000940090A490101F1804123EA020001F58021EB
S315000009501A4042EA00428A6000207047C8B201236A
S3150000096083404AB91A040B0A5B0103F1804303F57D
S31500000970802300209A6070479AB2F4E7090A490179
S3150000098001F1804101F5802110B40C6802EA0300F0
S31500000990204362EA030202405DF8044B0A6000202D
S315000009A0704700BF090A490101F1804101F5802124
S315000009B000204B68C3F30F431380704710B40B0A33
S315000009C05B0103F1804303F58023C8B25C68012113
S315000009D081408BB201EA1441C91AB1FA81F1490981
S315000009E000205DF8044B1170704700BF090A4901E9
S315000009F001F1804123EA020001F580211A4042EA12
S31500000A000042CA6000207047014B00201A707047F0
S31500000A10000D04400B0A5B0103F18043012A03F534
S31500000A2080230AD0D868C9B24FF480328A40024384
S31500000A30120C1204DA6000207047C8B2D9688240EE
S31500000A400A4392B2DA600020704700BF38B50488C6
S31500000A50002C4DD043680021043303EBC40040F260
S31500000A6002450C4640F2034C40F2044E0FE062454C
S31500000A7030D153F8042C02F0B852B2F1807F14BF83
S31500000A8041F0020144F002040833834211D01A886F
S31500000A90AA42ECD153F8042C02F0B852B2F1807F8E
S31500000AA003F1080314BF41F0010144F0010483423D
S31500000AB0EDD1C943CDB2012000F068FA0D4B93F891
S31500000AC0BB2414432C4083F8BB440120BDE83840C6
S31500000AD000F02CBA7245D7D153F8042C02F0B85264
S31500000AE0B2F1807F0CBF44F0040441F00401CBE76F
S31500000AF0FF25E0E700E00140F8B50446FFF7A6FF52
S31500000B00EFF31082012383F31088234E33681BB959
S31500000B102249CB704023CB7033680133336082F3B4
S31500000B20108825882DB362681D4C013DADB202F1D7
S31500000B30080101EBC50500E008311068928810F441
S31500000B40803F4FEA12235FFA82FC0CEB031E09D0AA
S31500000B5054F82E7020F480326FF3104744F82E704C
S31500000B6044F82E201B0163448D4244F823000A46B4
S31500000B70E2D1EFF31082012383F31088336813B1B7
S31500000B803368013B336033681BB904498020CB705E
S31500000B90C87082F31088F8BDDC00FE1F000D04400B
S31500000BA00008044008B50346034A1A600846FFF7E2
S31500000BB0A3FF002008BD00BF54524F5008B5084699
S31500000BC0FFF79AFF002008BD70B584B002AB01267E
S31500000BD068460C461546ADF80C100292ADF800605A
S31500000BE00193FFF733FFEFF3108286F310881D4958
S31500000BF00B681BB91C48C3704023C3700B680133D4
S31500000C000B6082F31088EA034FEA1423E4B219D486
S31500000C101B01164A234442F82350EFF310820123A6
S31500000C2083F310880B6813B10B68013B0B600B68EC
S31500000C301BB90D498020CB70C87082F31088002044
S31500000C4004B070BD04EB0310084A52F820606FF33D
S31500000C50104642F8206025F4803642F820601B01D9
S31500000C60D7E700BFDC00FE1F000D0440000804406B
S31500000C70F0B591F902C080F804C04FEA8C03D1E9BF
S31500000C80026403F1804303F5C0430022D3F8005306
S31500000C90C3F80023C0E90264124C91F800E080F822
S31500000CA005E004F80E200F79CA784E7942EA071259
S31500000CB042EAC612D2B2BCF1000F04F80E20C3F805
S31500000CC000530BDB4B7808490CF160421B0102F51F
S31500000CD06142DBB282F8003341F82C00034B03601B
S31500000CE00020F0BD00600040E000FE1F55434900B3
S31500000CF010B490F904200D4B02F1C000012153F805
S31500000D0020406FF3104443F8204053099B0003F141
S31500000D10604303F5614302F01F0201FA02F2C3F8D1
S31500000D20802100205DF8044B1A6070470060004087
S31500000D3010B582B0EFF30384103C164B164964B22B
S31500000D4053F8242050790B5C03F00303032B0FD0D8
S31500000D50C03451F824306FF3104341F824309368BF
S31500000D6023B1D268CDE900206846984702B010BD8D
S31500000D70936823B1D268CDE9002068469847064BB0
S31500000D80C03453F824206FF3104243F8242002B0F5
S31500000D9010BD00BFE000FE1F00600040064B074983
S31500000DA093F826001A6A51F820300549C2F3026208
S31500000DB0D3400B60704700BF00E001401400FE1FE7
S31500000DC06802FE1F30B4374B374C3849384800228A
S31500000DD04AF20355A3F8FE53A4F80021354C4C60A3
S31500000DE0354D364C08604FF40040C1E9020493F8D3
S31500000DF02640C1E9040551F824001C6A304DC4F3AD
S31500000E000264E0400924286083F8132483F8A24092
S31500000E1093F8800418B183F8812483F88024214A4A
S31500000E200620002382F8A50082F8323092F83C3082
S31500000E301807FBD5002342F20170108582F82A308C
S31500000E40184B93F83C209206FBD5174A022082F8ED
S31500000E501C01052083F826001A48186293F826001C
S31500000E601C6A51F82000C4F3026C20FA0CF02860CA
S31500000E70012140244FF4254083F8301083F85210A6
S31500000E8083F8531083F82440A3F8FE03A2F8041154
S31500000E90B2F804319BB2002BFAD1012330BCA2F880
S31500000EA00031704700E0014000C001401400FE1F01
S31500000EB0002D310100127A00001C4E0E00366E0124
S31500000EC06802FE1F21120121704700BF0B4B70B54F
S31500000ED0B3F840510A4E0024ADB225FA04F3DB07FD
S31500000EE0E0B203D556F8243003B198470134102CEC
S31500000EF0F3D1024BA3F8305170BD00BF0060004033
S31500000F009C00FE1F10B4074A074C002303F1C001E2
S31500000F10013332F8020F44F82100602BF6D15DF858
S31500000F20044B70473612000000600040EFF310815A
S31500000F30012383F31088124B33F8102092B22AB1A2
S31500000F4033F81020013A92B223F8102033F810300B
S31500000F509BB293B90B4A10B4B2F8FE330A4C9BB25B
S31500000F6034F8100043F4254323EA0003A2F8FE33C5
S31500000F7081F310885DF8044B704781F31088704741
S31500000F806002FE1F00E001403013000030B4EFF3B2
S31500000F901081012383F310880E4A32F810309BB279
S31500000FA06BB90D4C0D4DB4F8FE3335F810C09BB23D
S31500000FB043EA0C0343F425439BB2A4F8FE3332F80C
S31500000FC0103001339BB222F8103081F3108830BC08
S31500000FD0704700BF6002FE1F00E0014030130000B2
S31500000FE000BE704708B500F003F8FFF785FBFEE783
S31500000FF0224B234A4FF4700170B50020C3F88810C5
S315000010009A60FFF74DFBFFF7DDFE0120FFF748FB77
S315000010101C4B1D491D4D1E4E1E481F4A00244FF4F1
S31500001020254C9C80A3F800C09E60DD604FF480557F
S31500001030A1F8205101219980121A214600F046F8A4
S315000010401648174A1749184D121A00F031F8174B6F
S315000010505B1BA34206DD9E1055F8043B01349847FE
S31500001060A642F9DCFFF79AFE0220FFF719FBFFF70D
S3150000107049FFBDE870400020FFF726BF00ED00E005
S3150000108000000000000D0040006000407016FE1FCA
S315000010907012FE1F3000FE1F6C02FE1F0000FE1FB6
S315000010A01400FE1F3C1300000C00FE1F1000FE1F64
S315000010B00A44914200F1FF3300D1704710B511F890
S315000010C0014B03F8014F9142F9D110BD024403468A
S315000010D0934200D1704703F8011BF9E74275696C2A
S315000010E07420776974682052656E65736173204158
S315000010F06476616E63656420466C657869626C65CA
S3150000110020536F667477617265205061636B616707
S31500001110652076657273696F6E20332E352E30002A
S31500001120332E352E3000000000000503F8B500BF51
S31500001130F8BC08BC9E467047F8B500BFF8BC08BCB2
S315000011409E4670475400FE1FA0110000F8120000D2
S315000011500B0C000003000000A905000000000000C1
S31500001160000000000C0C010003000000A9050000AF
S3150000117000000000000000000D0C0200030000004B
S31500001180A905000000000000000000000E0C03008E
S3150000119003000000A9050000000000000000000098
S315000011A012000000A8110000004000000600000028
S315000011B00040000008000000004000000900000098
S315000011C0004000000A0000000000010008010000C5
S315000011D00000010009010000000001000A010000F2
S315000011E000000100000300000000010303040000EA
S315000011F00000010304040000000001040A040000CA
S31500001200000001040B0400000400000000090000B7
S31500001210040000000109000005000000080A0000A3
S3150000122005000000090A0000050000000A0A000087
S3150000123005000000000B00000C000D000E000F0062
S3150000124074017501760177010000000000000000BE
S315000012500000000000000000000000000000000088
S315000012600000000000000000000000000000000078
S315000012700000000000000000000000000000000068
S315000012800000000000000000000000000000000058
S315000012900000000000000000000000000000000048
S315000012A00000000000000000000000000000000038
S315000012B00000000000000000000000000000000028
S315000012C00000000000000000000000000000000018
S315000012D00000000000000000000000000000000008
S315000012E000000000000000000000000000000000F8
S315000012F00000000000000000A50B00000909000026
S31500001300BD0B0000C90B0000BD090000150A000056
S31500001310090A0000110900005D0900007D090000AE
S31500001320A5090000ED0900002D0900004109000093
S3110000133001000200080010000000000090
S3150000133C0109000901000000009F2400250500009A
S3090000134C0105000091
S3150100A150FFFFFFFFFFFFFFFFFFFFFFFFFFFFFFFF08
S70500000FE506
