S00C00004750494F2E73726563E9
S315000000004817FE1FD911000085100000D511000009
S31500000010D5110000D5110000D5110000D511000042
S31500000020000000000000000000000000D5110000E4
S31500000030D511000000000000D5110000D511000008
S31500000040BD0E0000BD0E0000BD0E0000BD0E00007E
S315000000505D090000D5080000E9090000250A000036
S31500000060000000000000000000000000000000008A
S31500000070000000000000000000000000000000007A
S31500000080000000000000000000000000000000006A
S31500000090000000000000000000000000000000005A
S31500000400FFFFFFFFFFFDFFFFFCFFFFFFFFFFFFFFFB
S31500000410FCFFFFFFFFFFFFFFFCFFFF00FFFFFF00EA
S31500000420FCFF0F20FFFF0F20FCFF7F40FFFF7F40F8
S31500000430FCFF0D40FFFF0D40FFFFFFFFFFFFFFFF2B
S31500000440FFFFFFFFFFFFFFFFFFFFFFFFFFFFFFFFB6
S31500000450FFFFFFFFFFFFFFFFFFFFFFFFFFFFFFFFA6
S31500000460FFFFFFFFFFFFFFFFFFFFFFFFFFFFFFFF96
S31500000470FFFFFFFFFFFFFFFFFFFFFFFFFFFFFFFF86
S31500000480FFFFFFFFFFFFFFFFFFFFFFFFFFFFFFFF76
S31500000490FFFFFFFFFFFFFFFFFFFFFFFFFFFFFFFF66
S315000004A0FFFFFFFFFFFFFFFFFFFFFFFFFFFFFFFF56
S315000004B0FFFFFFFFFFFFFFFFFFFFFFFFFFFFFFFF46
S315000004C0FFFFFFFFFFFFFFFFFFFFFFFFFFFFFFFF36
S315000004D0FFFFFFFFFFFFFFFFFFFFFFFFFFFFFFFF26
S315000004E0FFFFFFFFFFFFFFFFFFFFFFFFFFFFFFFF16
S315000004F0FFFFFFFFFFFFFFFFFFFFFFFFFFFFFFFF06
S3150000050010B5054C237833B9044B13B10448AFF347
S3150000051000800123237010BD9000FE1F0000000024
S31500000520301E000008B5034B1BB103490348AFF367
S31500000530008008BD000000009400FE1F301E000071
S3150000054070B506460D4601200A2101F0B1F9314683
S31500000550044601F0EEFA0749204601F0DBFAAA1C30
S315000005602146054800F070F92046BDE8704001F0CC
S31500000570ADB900BF0000FE1F3001FE1F38B5114D9A
S315000005801149124C284600F039FC284600F076FC4A
S315000005900F4D1049204600F031FC204600F06EFC5D
S315000005A00D4C0E49284600F029FC284600F066FC52
S315000005B020460B4900F022FC2046BDE8384000F0FA
S315000005C05DBC00BFF000FE1FE81B00000001FE1F1F
S315000005D01001FE1FFC1B00002001FE1F101C000066
S315000005E0241C000043680B3B032B07D8DFE803F00D
S315000005F0130B07020F4A104B1268DA6470470E4B52
S315000006000022DA6470470D490D4B09880D48002217
S315000006101A7000F069BA0C4808490368098810B4D2
S315000006200122074C13440360227006485DF8044B10
S3150000063000F05ABA0800FE1F008307400200FE1FA2
S31500000640BA00FE1FC400FE1FAC00FE1F70B51B4B98
S315000006501B4CD3F808211B491B4E6FF34512C3F8F8
S315000006600821E36A6FF31243E362E36A6FF3DA5336
S31500000670E3620B680025013B6366A564636B092290
S3150000068062F304036363636B104A43F4807363632A
S315000006900F4B11881D702A46304600F025FAE56496
S315000006A0E36A0C4A0C4943F00103E36230461278D0
S315000006B00988BDE8704000F017BA00BF006F04401B
S315000006C0008307400800FE1FC400FE1F0200FE1F35
S315000006D0BA00FE1F0600FE1F0400FE1F022800D0FF
S315000006E07047024B0248596800F022BBDC1B000031
S315000006F0C400FE1FFFFFFFFF00B583B00DF1060229
S315000007000021194800F01EFCBDF806309FED177A4F
S3150000071007EE903A164BF8EEE77AD3ED006A154BE2
S3150000072067EEA67A67EE877AFCEEE77A17EE902AEE
S3150000073090B2188001F032F809A3D3E9002300F043
S31500000740B1FD01F095F880B20B490C4A0880C0F55E
S315000007501C531033138003B05DF804FBAFF3008025
S31500000760E78C28ED0D3E0840CC00FE1F00007A44C1
S31500000770D81B0000B800FE1FB600FE1FB400FE1F07
S3150000078010B51248114C82B000F0CEFB01238DF853
S31500000790043001A9204600F0CDFB9DF80430012B62
S315000007A0F7D0FFF7A9FF02210DF10602074800F076
S315000007B0C9FBBDF806300648064A0380B3F5487FF4
S315000007C02CBF01210021117002B010BDCC00FE1F0C
S315000007D0B200FE1FB000FE1F38B5FFF7CFFEFFF7D1
S315000007E035FF002240F608211148124C124D00F048
S315000007F07BF9002240F609210D4800F075F9002228
S3150000080040F60A210A4800F06FF9094800224FF421
S31500000810306100F069F9FFF7B3FF2B88237020469B
S3150000082001F08FF901462046FFF78AFEF3E700BF85
S31500000830C400FE1FBC00FE1FB800FE1F08B5FFF770
S31500000840CBFF002008BD00BF10B4046AA37803F0F4
S315000008507B03A370837803F00303D21A0B4402616F
S31500000860A278C360837803F0030342F08002022B70
S31500000870A27005D00B78E37000205DF8044B70473A
S315000008800B8843F47E43E38100205DF8044B7047F8
S31500000890F0B5846A85B005460F4694466E46B4B1F7
S315000008A094E80F0086E80F00EB691B7884F804C013
S315000008B02360EB6A2046C4E902736B6A9847AC6A08
S315000008C01CB196E80F0084E80F0005B0F0BD344671
S315000008D0EAE700BF30B4EFF30383103B5BB203F1EA
S315000008E0C0011C4A1C4C52F821006FF3104042F81C
S315000008F0210054F82300C3691B691BB103691BB1AE
S3150000090030BC7047036963B9046AA37803F07F03B8
S31500000910002143F00403A370802230BCC160FFF7BE
S31500000920B7BF827802F003010229C1680BD0046ABE
S3150000093091F800C084F803C002F003029B1A0A442F
S31500000940C0E90323DBE70C88056A44F47E44EC81A6
S31500000950F2E700BF00600040A401FE1F10B582B0A0
S31500000960EFF30383103B5BB203F1C0011C4A1D4C3D
S3150000097052F821006FF3104042F8210054F823404A
S31500000980A27802F00303022B236A0CBF198A597955
S31500000990A3690CBFC1F30801C9B2019133B904229E
S315000009A0204602B0BDE81040FFF772BF02F0030216
S315000009B001A9606900F092FFD4E90521A37803F04C
S315000009C003031A44C91AC4E9052109B102B010BDCE
S315000009D00122204602B0BDE81040FFF759BF00BF14
S315000009E000600040A401FE1F38B5EFF30384103CFD
S315000009F00A4B64B2022253F82400056AAB7803F06E
S31500000A007B03AB700021FFF743FFC034044B53F860
S31500000A1024206FF3104243F8242038BDA401FE1FA2
S31500000A200060004010B5EFF30384103C174B64B22E
S31500000A3053F82400837803F00303022B036A0CBFE8
S31500000A40198A597993F804C00CBFC1F30801C9B2D9
S31500000A501CF0100F0CF0380206D093F81CC01CF0E6
S31500000A60010F08BF42F0400293F804C00CF0C70C17
S31500000A7083F804C0FFF70CFFC034054B53F824205D
S31500000A806FF3104243F8242010BD00BFA401FE1FDF
S31500000A900060004000230360184670470B0A1B01E4
S31500000AA0044853FA81F150F82130C3F34003002083
S31500000AB01370704700080440090A490101F180419A
S31500000AC001F5802100204B6813807047090A49010F
S31500000AD001F1804123EA020001F580211A4042EA31
S31500000AE000428A6000207047C8B2012383404AB999
S31500000AF01A040B0A5B0103F1804303F580230020EF
S31500000B009A6070479AB2F4E7090A490101F18041F7
S31500000B1001F5802110B40C6802EA0300204362EA62
S31500000B20030202405DF8044B0A600020704700BFD4
S31500000B30090A490101F1804101F5802100204B6835
S31500000B40C3F30F431380704710B40B0A5B0103F124
S31500000B50804303F58023C8B25C68012181408BB2D3
S31500000B6001EA1441C91AB1FA81F1490900205DF878
S31500000B70044B1170704700BF090A490101F1804119
S31500000B8023EA020001F580211A4042EA0042CA60C7
S31500000B9000207047014B00201A707047000D04407A
S31500000BA00B0A5B0103F18043012A03F580230AD077
S31500000BB0D868C9B24FF480328A400243120C12043C
S31500000BC0DA6000207047C8B2D96882400A4392B200
S31500000BD0DA600020704700BF38B50488002C4DD07D
S31500000BE043680021043303EBC40040F202450C467F
S31500000BF040F2034C40F2044E0FE0624530D153F808
S31500000C00042C02F0B852B2F1807F14BF41F0020109
S31500000C1044F002040833834211D01A88AA42ECD168
S31500000C2053F8042C02F0B852B2F1807F03F10803A6
S31500000C3014BF41F0010144F001048342EDD1C943E0
S31500000C40CDB2012000F07EFA0D4B93F8BB2414437D
S31500000C502C4083F8BB440120BDE8384000F042BA7E
S31500000C607245D7D153F8042C02F0B852B2F1807F06
S31500000C700CBF44F0040441F00401CBE7FF25E0E794
S31500000C8000E00140F8B50446FFF7A6FFEFF3108237
S31500000C90012383F31088234E33681BB92249CB7096
S31500000CA04023CB7033680133336082F31088258884
S31500000CB02DB362681D4C013DADB202F1080101EB96
S31500000CC0C50500E008311068928810F4803F4FEAAD
S31500000CD012235FFA82FC0CEB031E09D054F82E7027
S31500000CE020F480326FF3104744F82E7044F82E201B
S31500000CF01B0163448D4244F823000A46E2D1EFF318
S31500000D001082012383F31088336813B13368013BE3
S31500000D10336033681BB904498020CB70C87082F3F6
S31500000D201088F8BDA001FE1F000D04400008044015
S31500000D3008B50346034A1A600846FFF7A3FF0020DA
S31500000D4008BD00BF54524F5008B50846FFF79AFF3A
S31500000D50002008BD70B584B002AB012668460C467B
S31500000D601546ADF80C100292ADF800600193FFF73E
S31500000D7033FFEFF3108286F310881D490B681BB909
S31500000D801C48C3704023C3700B6801330B6082F3A9
S31500000D901088EA034FEA1423E4B219D41B01164A59
S31500000DA0234442F82350EFF31082012383F3108883
S31500000DB00B6813B10B68013B0B600B681BB90D493F
S31500000DC08020CB70C87082F31088002004B070BDFC
S31500000DD004EB0310084A52F820606FF3104642F8FD
S31500000DE0206025F4803642F820601B01D7E700BF5B
S31500000DF0A001FE1F000D044000080440F0B591F963
S31500000E0002C080F804C04FEA8C03D1E9026403F102
S31500000E10804303F5C0430022D3F80053C3F80023F0
S31500000E20C0E90264124C91F800E080F805E004F88D
S31500000E300E200F79CA784E7942EA071242EAC612A4
S31500000E40D2B2BCF1000F04F80E20C3F800530BDB3E
S31500000E504B7808490CF160421B0102F56142DBB296
S31500000E6082F8003341F82C00034B03600020F0BDEC
S31500000E7000600040A401FE1F5543490010B490F9DC
S31500000E8004200D4B02F1C000012153F820406FF3FE
S31500000E90104443F8204053099B0003F1604303F5D7
S31500000EA0614302F01F0201FA02F2C3F8802100201A
S31500000EB05DF8044B1A6070470060004010B582B0C0
S31500000EC0EFF30384103C164B164964B253F8242002
S31500000ED050790B5C03F00303032B0FD0C03451F899
S31500000EE024306FF3104341F82430936823B1D2685D
S31500000EF0CDE900206846984702B010BD936823B13B
S31500000F00D268CDE9002068469847064BC03453F8AE
S31500000F1024206FF3104243F8242002B010BD00BF16
S31500000F20A401FE1F00600040034600201A689B8A49
S31500000F301380704703681B88C3F3C03300200B700F
S31500000F40704700BF03681031002033F8113013805A
S31500000F50704700BF064B074993F826001A6A51F8F6
S31500000F6020300549C2F30262D3400B60704700BFD0
S31500000F7000E001407800FE1F3003FE1F30B4374BFF
S31500000F80374C3849384800224AF20355A3F8FE5335
S31500000F90A4F80021354C4C60354D364C08604FF4B2
S31500000FA00040C1E9020493F82640C1E9040551F85E
S31500000FB024001C6A304DC4F30264E0400924286012
S31500000FC083F8132483F8A24093F8800418B183F8B9
S31500000FD0812483F88024214A0620002382F8A50074
S31500000FE082F8323092F83C301807FBD5002342F2E3
S31500000FF00170108582F82A30184B93F83C2092062F
S31500001000FBD5174A022082F81C01052083F826002A
S315000010101A48186293F826001C6A51F82000C4F397
S31500001020026C20FA0CF02860012140244FF4254080
S3150000103083F8301083F8521083F8531083F8244055
S31500001040A3F8FE03A2F80411B2F804319BB2002BF8
S31500001050FAD1012330BCA2F80031704700E001400C
S3150000106000C001407800FE1F002D310100127A00F9
S31500001070001C4E0E00366E013003FE1F21120121A8
S31500001080704700BF0B4B70B5B3F840510A4E0024B1
S31500001090ADB225FA04F3DB07E0B203D556F82430E7
S315000010A003B198470134102CF3D1024BA3F8305109
S315000010B070BD00BF006000406001FE1F10B4074A0B
S315000010C0074C002303F1C001013332F8020F44F844
S315000010D02100602BF6D15DF8044B7047CE1C000052
S315000010E000600040EFF31081012383F31088124B58
S315000010F033F8102092B22AB133F81020013A92B296
S3150000110023F8102033F810309BB293B90B4A10B471
S31500001110B2F8FE330A4C9BB234F8100043F4254370
S3150000112023EA0003A2F8FE3381F310885DF8044B2E
S31500001130704781F3108870472403FE1F00E00140CA
S31500001140C81D000030B4EFF31081012383F310882B
S315000011500E4A32F810309BB26BB90D4C0D4DB4F8F7
S31500001160FE3335F810C09BB243EA0C0343F4254323
S315000011709BB2A4F8FE3332F8103001339BB222F84A
S31500001180103081F3108830BC704700BF2403FE1F67
S3150000119000E00140C81D00000B4A08B50346106870
S315000011A040B10333094923F0030303448B4204D8B7
S315000011B0136008BD06481060F3E700F081FB0C23BE
S315000011C003604FF0FF3008BD2C03FE1F4813FE1FBF
S315000011D04803FE1F00BE704708B500F003F8FFF78E
S315000011E02DFBFEE7224B234A4FF4700170B5002019
S315000011F0C3F888109A60FFF771FAFFF7BFFE012067
S31500001200FFF76CFA1C4B1D491D4D1E4E1E481F4A0A
S3150000121000244FF4254C9C80A3F800C09E60DD603E
S315000012204FF48055A1F8205101219980121A2146C8
S3150000123000F062FB1648174A1749184D121A00F0BB
S315000012404DFB174B5B1BA34206DD9E1055F8043B76
S3150000125001349847A642F9DCFFF77CFE0220FFF72F
S315000012603DFAFFF72BFFBDE870400020FFF708BFEF
S3150000127000ED00E000000000000D004000600040AE
S315000012804817FE1F4813FE1F9000FE1F4403FE1F53
S315000012900000FE1F7800FE1F341E00007000FE1FB7
S315000012A07400FE1F70B54FF0FF0C4CF4E06C1CEAA6
S315000012B011541DBF1CEA135594EA0C0F95EA0C0F46
S315000012C000F0DEF82C4481EA030621EA4C5123EAB9
S315000012D04C5350EA013518BF52EA033541F48011E8
S315000012E043F4801338D0A0FB02CE4FF00005E1FB9B
S315000012F002E506F00042E0FB03E54FF00006E1FBE5
S3150000130003569CF0000F18BF4EF0010EA4F1FF0427
S31500001310B6F5007F64F5407404D25FEA4E0E6D4167
S3150000132046EB060642EAC62141EA55514FEAC52078
S3150000133040EA5E504FEACE2EB4F1FD0C88BFBCF5F4
S31500001340E06F1ED8BEF1004F08BF5FEA500E50F1A5
S31500001350000041EB045170BD06F0004646EA01016B
S3150000136040EA020081EA0301B4EB5C04C2BFD4EB9D
S315000013700C0541EA045170BD41F480114FF0000E96
S31500001380013C00F3AB8014F1360FDEBF002001F004
S31500001390004170BDC4F10004203C35DA0C341BDC7E
S315000013A004F11404C4F1200500FA05F320FA04F050
S315000013B001FA05F240EA020001F0004221F0004184
S315000013C010EBD37021FA04F642EB06015EEA430EF7
S315000013D008BF20EAD37070BDC4F10C04C4F1200527
S315000013E000FA04F320FA05F001FA04F240EA0200DA
S315000013F001F0004110EBD37041F100015EEA430EAB
S3150000140008BF20EAD37070BDC4F1200500FA05F2CA
S315000014104EEA020E20FA04F301FA05F243EA020349
S3150000142021FA04F001F0004121FA04F220EA020058
S3150000143000EBD3705EEA430E08BF20EAD37070BD9E
S3150000144094F0000F0FD101F00046400041EB01017E
S3150000145011F4801F08BF013CF7D041EA060195F060
S31500001460000F18BF704703F00046520043EB03031A
S3150000147013F4801F08BF013DF7D043EA0603704707
S3150000148094EA0C0F0CEA135518BF95EA0C0F0CD012
S3150000149050EA410618BF52EA4306D1D181EA030158
S315000014A001F000414FF0000070BD50EA410606BF52
S315000014B01046194652EA430619D094EA0C0F02D197
S315000014C050EA013613D195EA0C0F05D152EA0336DC
S315000014D01CBF104619460AD181EA030101F00041FA
S315000014E041F0FE4141F470014FF0000070BD41F043
S315000014F0FE4141F4780170BD81F0004102E000BF79
S3150000150083F0004330B54FEA41044FEA430594EABD
S31500001510050F08BF90EA020F1FBF54EA000C55EAF8
S31500001520020C7FEA645C7FEA655C00F0E2804FEAC9
S315000015305454D4EB5555B8BF6D420CDD2C4480EAAB
S31500001540020281EA030382EA000083EA010180EADB
S31500001550020281EA0303362D88BF30BD11F0004F29
S315000015604FEA01314FF4801C4CEA113102D040425F
S3150000157061EB410113F0004F4FEA03334CEA13339A
S3150000158002D0524263EB430394EA050F00F0A780B2
S31500001590A4F10104D5F1200E0DDB02FA0EFC22FAAD
S315000015A005F2801841F1000103FA0EF2801843FAA1
S315000015B005F359410EE0A5F120050EF1200E012A92
S315000015C003FA0EFC28BF4CF0020C43FA05F3C018D0
S315000015D051EBE37101F0004507D54FF0000EDCF149
S315000015E0000C7EEB00006EEB0101B1F5801F1BD3F2
S315000015F0B1F5001F0CD349085FEA30004FEA3C0CF6
S3150000160004F101044FEA445212F5800F80F09A80EB
S31500001610BCF1004F08BF5FEA500C50F1000041EBEF
S31500001620045141EA050130BD5FEA4C0C404141EBF3
S315000016300101013C28BFB1F5801FE9D291F0000FEE
S3150000164004BF01460020B1FA81F308BF2033A3F19D
S315000016500B03B3F120020CDA0C3208DD02F1140C94
S31500001660C2F10C0201FA0CF021FA02F10CE002F1CF
S315000016701402D8BFC2F1200C01FA02F120FA0CFCC8
S31500001680DCBF41EA0C019040E41AA2BF01EB045111
S31500001690294330BD6FEA04041F3C1CDA0C340EDC0F
S315000016A004F11404C4F1200220FA04F001FA02F352
S315000016B040EA030021FA04F345EA030130BDC4F110
S315000016C00C04C4F1200220FA02F001FA04F340EA05
S315000016D00300294630BD21FA04F0294630BD94F0B6
S315000016E0000F83F4801306BF81F480110134013D9D
S315000016F04EE77FEA645C18BF7FEA655C29D094EA0E
S31500001700050F08BF90EA020F05D054EA000C04BF8B
S315000017101946104630BD91EA030F1EBF0021002076
S3150000172030BD5FEA545C05D14000494128BF41F015
S31500001730004130BD14F580043CBF01F5801130BD79
S3150000174001F0004545F0FE4141F470014FF0000004
S3150000175030BD7FEA645C1ABF194610467FEA655CB5
S315000017601CBF0B46024650EA013406BF52EA033557
S3150000177091EA030F41F4002130BD00BF90F0000F45
S3150000178004BF0021704730B54FF4806404F1320481
S315000017904FF000054FF0000150E700BF90F0000F3A
S315000017A004BF0021704730B54FF4806404F1320461
S315000017B010F0004548BF40424FF000013EE700BF31
S315000017C042004FEAE2014FEA31014FEA02701FBFC1
S315000017D012F07F4393F07F4F81F06051704732F0F3
S315000017E07F4208BF704793F07F4F04BF41F400214A
S315000017F0704730B54FF4607401F0004521F00041A8
S315000018001CE700BF50EA010208BF704730B54FF031
S3150000181000050AE050EA010208BF704730B511F032
S31500001820004502D5404261EB41014FF4806404F16A
S3150000183032045FEA915C3FF4D8AE4FF003025FEAF0
S31500001840DC0C18BF03325FEADC0C18BF033202EB74
S31500001850DC02C2F1200300FA03FC20FA02F001FACE
S3150000186003FE40EA0E0021FA02F11444BDE600BF71
S315000018704A0011D212F5001211D20DD56FF4787309
S31500001880B3EB62520ED44FEAC12343F0004343EA5E
S31500001890505323FA02F070474FF00000704750EAA9
S315000018A0013002D14FF0FF3070474FF00000704713
S315000018B0024B0A460146186800F026B80C00FE1FC7
S315000018C0014B1868704700BF0C00FE1F024B014613
S315000018D0186800F02FB800BF0C00FE1F0A449142A2
S315000018E000F1FF3300D1704710B511F8014B03F832
S315000018F0014F9142F9D110BD02440346934200D1F3
S31500001900704703F8011BF9E737B5A1FB02244CB970
S315000019101146019200F07AF8019A054630B9284638
S3150000192003B030BD0C2202600025F8E72146FFF720
S31500001930E3FFF4E737B5002944D051F8043C0190A1
S31500001940002BA1F10404B8BFE41800F003F91E4A05
S315000019500198136833B96360146003B0BDE8304082
S3150000196000F0FEB8A34208D9256861198B4201BF71
S3150000197019685B6849192160EDE71A465B680BB187
S31500001980A342FAD911685518A5420BD124682144FF
S315000019905418A3421160E0D11C685B68536021446F
S315000019A01160DAE702D90C230360D6E725686119CE
S315000019B08B4204BF19685B68636004BF49192160E4
S315000019C05460CAE703B030BD3403FE1F70B50E4E37
S315000019D00C463168054611B900F08CF83060214696
S315000019E0284600F087F8431C0AD0C41C24F00304E0
S315000019F0A04207D0211A284600F07CF8013001D118
S31500001A004FF0FF34204670BD3803FE1F2DE9F0412C
S31500001A10CD1C25F0030508350C2D38BF0C25002DEF
S31500001A20074601DBA94205D90C233B600026304658
S31500001A30BDE8F0812E4E00F08DF833681C4634BBAD
S31500001A4029463846FFF7C2FF431C04464DD1346889
S31500001A502646002E40D123683146384604EB03085B
S31500001A6000F048F880453AD1216803356D1A25F013
S31500001A70030508350C2D38BF0C2529463846FFF7D7
S31500001A80A5FF01302BD023682B4423600EE022688B
S31500001A90521B1ED40B2A16D96119A342256018BF02
S31500001AA05960636808BF316062514B60384604F183
S31500001AB00B0600F055F826F00706231DF21AB6D0DD
S31500001AC09B1BA350B3E76268A3420CBF32605A6007
S31500001AD0ECE723466468B2E734467668B9E70C2338
S31500001AE03B60384600F03CF8A1E72560DEE700BF22
S31500001AF03403FE1F38B5064D0023044608462B6006
S31500001B00FFF74AFB431C02D12B6803B1236038BDA3
S31500001B103C03FE1F10B50246147813460132002C12
S31500001B20FAD1013B11F8012B03F8012F002AF9D154
S31500001B3010BD034611F8012B03F8012B002AF9D139
S31500001B407047034613F8012B002AFBD1181A0138F7
S31500001B507047FFFF014800F009B800BF4003FE1FB1
S31500001B60014800F004B800BF4003FE1F70477047ED
S31500001B704275696C7420776974682052656E657366
S31500001B80617320416476616E63656420466C657896
S31500001B9069626C6520536F66747761726520506167
S31500001BA0636B6167652076657273696F6E20332E8D
S31500001BB0352E3000332E352E300000000000050390
S31500001BC0F8B500BFF8BC08BC9E467047F8B500BF24
S31500001BD0F8BC08BC9E4670473333533AC400FE1F18
S31500001BE0381C0000901D00000B0C000003000000D4
S31500001BF0E505000000000000000000000C0C0100DC
S31500001C0003000000E50500000000000000000000E1
S31500001C100D0C020003000000E505000000000000B6
S31500001C20000000000E0C030003000000E5050000A4
S31500001C30000000000000000012000000401C000030
S31500001C400040000006000000004000000800000000
S31500001C500040000009000000004000000A000000EB
S31500001C600000010008010000000001000901000059
S31500001C70000001000A01000000000100000300004E
S31500001C800000010303040000000001030404000037
S31500001C90000001040A040000000001040B04000017
S31500001CA00400000000090000040000000109000013
S31500001CB005000000080A000005000000090A0000EF
S31500001CC0050000000A0A000005000000000B0000E5
S31500001CD00C000D000E000F007401750176017701EE
S31500001CE000000000000000000000000000000000EE
S31500001CF000000000000000000000000000000000DE
S31500001D0000000000000000000000000000000000CD
S31500001D1000000000000000000000000000000000BD
S31500001D2000000000000000000000000000000000AD
S31500001D30000000000000000000000000000000009D
S31500001D40000000000000000000000000000000008D
S31500001D50000000000000000000000000000000007D
S31500001D60000000000000000000000000000000006D
S31500001D70000000000000000000000000000000005D
S31500001D80000000000000000000000000000000004D
S31500001D90310D0000950A0000490D0000550D0000A8
S31500001DA0490B0000A10B0000950B00009D0A0000E6
S31500001DB0E90A0000090B0000310B0000790B000056
S31500001DC0B90A0000CD0A0000010002000800100058
S31500001DD000000000000000000000000000000000FD
S31500001DE000000000000000000000000000000000ED
S31500001DF000000000000000000000000000000000DD
S31500001E0000000000000000000000000000000000CC
S31500001E1000000000000000000000000000000000BC
S31500001E2000000000000000000000000000000000AC
S30900001E3000000000A8
S31500001E340D0A010900090100009F24001000FE1F7D
S31500001E4400000000F01D0000101E0000D01D000060
S31500001E540000000000000000000000000000000078
S31500001E640000000000000000000000000000000068
S31500001E740000000000000000000000000000000058
S31500001E840000000000000000000000000000000048
S31500001E940000000000000000000000000000000038
S30D00001EA4250500000105000000
S3150100A150FFFFFFFFFFFFFFFFFFFFFFFFFFFFFFFF08
S705000011D910
